{
  "_format": "hh3-artifact-1",
  "contractName": "Order",
  "sourceName": "contracts/Order.sol",
  "abi": [
    {
      "anonymous": false,
      "inputs": [
        {
          "indexed": false,
          "internalType": "string",
          "name": "orderId",
          "type": "string"
        },
        {
          "indexed": false,
          "internalType": "address",
          "name": "buyer",
          "type": "address"
        },
        {
          "indexed": false,
          "internalType": "uint256",
          "name": "amount",
          "type": "uint256"
        }
      ],
      "name": "OrderPlaced",
      "type": "event"
    },
    {
      "inputs": [],
      "name": "USDC_ADDRESS",
      "outputs": [
        {
          "internalType": "address",
          "name": "",
          "type": "address"
        }
      ],
      "stateMutability": "view",
      "type": "function"
    },
    {
      "inputs": [
        {
          "internalType": "uint256",
          "name": "",
          "type": "uint256"
        }
      ],
      "name": "allOrderIds",
      "outputs": [
        {
          "internalType": "string",
          "name": "",
          "type": "string"
        }
      ],
      "stateMutability": "view",
      "type": "function"
    },
    {
      "inputs": [],
      "name": "getContractBalance",
      "outputs": [
        {
          "internalType": "uint256",
          "name": "",
          "type": "uint256"
        }
      ],
      "stateMutability": "view",
      "type": "function"
    },
    {
      "inputs": [
        {
          "internalType": "string",
          "name": "",
          "type": "string"
        }
      ],
      "name": "orders",
      "outputs": [
        {
          "internalType": "string",
          "name": "orderId",
          "type": "string"
        },
        {
          "internalType": "uint256",
          "name": "amountPaid",
          "type": "uint256"
        },
        {
          "internalType": "address",
          "name": "buyer",
          "type": "address"
        },
        {
          "internalType": "uint256",
          "name": "timestamp",
          "type": "uint256"
        }
      ],
      "stateMutability": "view",
      "type": "function"
    },
    {
      "inputs": [
        {
          "internalType": "string",
          "name": "_orderId",
          "type": "string"
        },
        {
          "internalType": "uint256",
          "name": "_amount",
          "type": "uint256"
        }
      ],
      "name": "payForOrder",
      "outputs": [],
      "stateMutability": "nonpayable",
      "type": "function"
    }
  ],
  "bytecode": "0x6080604052348015600e575f5ffd5b5061091d8061001c5f395ff3fe608060405234801561000f575f5ffd5b5060043610610055575f3560e01c80631a948947146100595780632bf05e9b146100855780636f9fb98a146100a5578063bb09d9b7146100bb578063d112db5b146100ee575b5f5ffd5b61006c61006736600461061e565b610103565b60405161007c9493929190610686565b60405180910390f35b6100986100933660046106bd565b6101c7565b60405161007c91906106d4565b6100ad61026d565b60405190815260200161007c565b6100d673036cbd53842c5426634e7929541ec2318f3dcf7e81565b6040516001600160a01b03909116815260200161007c565b6101016100fc3660046106ed565b6102e5565b005b80516020818301810180515f825292820191909301209152805481906101289061072f565b80601f01602080910402602001604051908101604052809291908181526020018280546101549061072f565b801561019f5780601f106101765761010080835404028352916020019161019f565b820191905f5260205f20905b81548152906001019060200180831161018257829003601f168201915b5050505060018301546002840154600390940154929390926001600160a01b03909116915084565b600181815481106101d6575f80fd5b905f5260205f20015f9150905080546101ee9061072f565b80601f016020809104026020016040519081016040528092919081815260200182805461021a9061072f565b80156102655780601f1061023c57610100808354040283529160200191610265565b820191905f5260205f20905b81548152906001019060200180831161024857829003601f168201915b505050505081565b6040516370a0823160e01b81523060048201525f9073036cbd53842c5426634e7929541ec2318f3dcf7e906370a0823190602401602060405180830381865afa1580156102bc573d5f5f3e3d5ffd5b505050506040513d601f19601f820116820180604052508101906102e09190610767565b905090565b5f81116103395760405162461bcd60e51b815260206004820152601e60248201527f5061796d656e74206d7573742062652067726561746572207468616e2030000060448201526064015b60405180910390fd5b5f6001600160a01b03165f83604051610352919061077e565b908152604051908190036020019020600201546001600160a01b0316146103b35760405162461bcd60e51b815260206004820152601560248201527413dc99195c88125108185b1c9958591e481c185a59605a1b6044820152606401610330565b6040516323b872dd60e01b8152336004820152306024820152604481018290525f9073036cbd53842c5426634e7929541ec2318f3dcf7e906323b872dd906064016020604051808303815f875af1158015610410573d5f5f3e3d5ffd5b505050506040513d601f19601f820116820180604052508101906104349190610794565b90508061047a5760405162461bcd60e51b81526020600482015260146024820152731554d110c81d1c985b9cd9995c8819985a5b195960621b6044820152606401610330565b6040805160808101825284815260208101849052338183015242606082015290515f906104a890869061077e565b908152604051908190036020019020815181906104c590826107ff565b50602082015160018281019190915560408301516002830180546001600160a01b0319166001600160a01b03909216919091179055606090920151600390910155805480820182555f919091527fb10e2d527612073b26eecdfd717e6a320cf44b4afac2b0732d9fcbe2b7fa0cf60161053e84826107ff565b507fc33190277387bfba0402dc07dafad106abb05758e55fa7c1519e0d1f5dcc63da833384604051610572939291906108ba565b60405180910390a1505050565b634e487b7160e01b5f52604160045260245ffd5b5f82601f8301126105a2575f5ffd5b813567ffffffffffffffff8111156105bc576105bc61057f565b604051601f8201601f19908116603f0116810167ffffffffffffffff811182821017156105eb576105eb61057f565b604052818152838201602001851015610602575f5ffd5b816020850160208301375f918101602001919091529392505050565b5f6020828403121561062e575f5ffd5b813567ffffffffffffffff811115610644575f5ffd5b61065084828501610593565b949350505050565b5f81518084528060208401602086015e5f602082860101526020601f19601f83011685010191505092915050565b608081525f6106986080830187610658565b6020830195909552506001600160a01b03929092166040830152606090910152919050565b5f602082840312156106cd575f5ffd5b5035919050565b602081525f6106e66020830184610658565b9392505050565b5f5f604083850312156106fe575f5ffd5b823567ffffffffffffffff811115610714575f5ffd5b61072085828601610593565b95602094909401359450505050565b600181811c9082168061074357607f821691505b60208210810361076157634e487b7160e01b5f52602260045260245ffd5b50919050565b5f60208284031215610777575f5ffd5b5051919050565b5f82518060208501845e5f920191825250919050565b5f602082840312156107a4575f5ffd5b815180151581146106e6575f5ffd5b601f8211156107fa57805f5260205f20601f840160051c810160208510156107d85750805b601f840160051c820191505b818110156107f7575f81556001016107e4565b50505b505050565b815167ffffffffffffffff8111156108195761081961057f565b61082d81610827845461072f565b846107b3565b6020601f82116001811461085f575f83156108485750848201515b5f19600385901b1c1916600184901b1784556107f7565b5f84815260208120601f198516915b8281101561088e578785015182556020948501946001909201910161086e565b50848210156108ab57868401515f19600387901b60f8161c191681555b50505050600190811b01905550565b606081525f6108cc6060830186610658565b6001600160a01b03949094166020830152506040015291905056fea26469706673582212200add4d04b2c1f167a10a65664a4de68e3f35cb1dcf003e30497b46deecfc23fe64736f6c634300081c0033",
  "linkReferences": {},
  "deployedLinkReferences": {},
  "immutableReferences": {},
  "inputSourceName": "project/contracts/Order.sol",
  "buildInfoId": "solc-0_8_28-65d07e60922a1d28825a39d7b1249214e386b1cf"
}